:10000000000001203902000091020000930200006C
:100010009502000097020000990200000000000015
:100020000000000000000000000000009B02000033
:100030009D020000000000009F020000A1020000DD
:10004000A5020000A7020000A9020000AB02000008
:10005000AD020000AF020000B1020000B3020000D8
:10006000B5020000B7020000B9020000BB020000A8
:10007000BD020000BF020000C1020000C302000078
:10008000C5020000C7020000C9020000CB02000048
:10009000CD020000CF020000D1020000D302000018
:1000A000D5020000D7020000D9020000DB020000E8
:1000B000DD020000DF020000A3020000A302000036
:1000C000E1020000E3020000E5020000E702000098
:0C00D000E9020000EB020000ED0200005D
:1000DC00354936480A1A02D0072291438D463449D5
:1000EC0034480A1A06D00722914381F30988022268
:1000FC0082F3148830483149314A00F044F83148D1
:10010C003149324A00F03FF831483249324A00F066
:10011C003AF832483249334A00F035F8324833491C
:10012C00334A00F030F833483349344A00F02BF8A6
:10013C0033483449344A00F026F834483449002214
:10014C0000F02CF833483449002200F027F83348EB
:10015C003349091A082902DB002202604160314A46
:10016C0090471F481F49884205D00268043003B4E9
:10017C00904703BCF7E700208646EC4600200021A0
:10018C00294A9047FEE7884207D0521A05D00378D7
:10019C0001300B700131013AF9D17047884202D01D
:1001AC0002700130FAE770470000012000E00020E7
:1001BC000000012000000120700D00000000002054
:1001CC0004000020F0020000F0020000FA0C000015
:1001DC00700D00000000002000000020FC0C00004E
:1001EC00FC0C0000FC0C0000FC0C0000FC0C0000E3
:1001FC00FC0C0000FC0C0000FC0C00006E0D000060
:10020C00740D0000040000200400002004000020F5
:10021C0094020020940200209402002094020020FA
:10022C00942200205D020000F10200000F484FF004
:10023C000701884385460E4880470E48016841F403
:10024C0070010160BFF34F8FBFF36F8FFFF740BF9B
:10025C0009480A490A4A884207D0521A05D003783D
:10026C0001300B700131013AF9D1704700000120C7
:10027C00A909000088ED00E0FC0C00000000002043
:10028C0000000020FEE7FEE7FEE7FEE7FEE7FEE7E4
:10029C00FEE7FEE7FEE7FEE7FEE7FEE7FEE7FEE72A
:1002AC00FEE7FEE7FEE7FEE7FEE7FEE7FEE7FEE71A
:1002BC00FEE7FEE7FEE7FEE7FEE7FEE7FEE7FEE70A
:1002CC00FEE7FEE7FEE7FEE7FEE7FEE7FEE7FEE7FA
:1002DC00FEE7FEE7FEE7FEE7FEE7FEE7FEE7FEE7EA
:0402EC00FEE700BF6A
:1002F0002DE9F341032000F059F81149114E124F36
:10030000DFF84880002000F011FB46F001060024D1
:10031000204600F039F84FF4FA754FF47A40B047B0
:10032000013DFAD13B780133DBB200931A464146D6
:10033000284601343B7000F023FA042CE8D1E6E7AC
:10034000FC0C0000400D000004000020050D000022
:10035000044B1A5C012393404FF0A042C2F80835C9
:10036000704700BF460D000008B50020FFF7F0FF02
:100370000120FFF7EDFF0220FFF7EAFFBDE808408C
:100380000320FFF7E5BF0000074A4FF0A041105CD3
:10039000D1F804350122824022EA03001340C1F85B
:1003A0000805C1F80C357047460D0000C20708B5B6
:1003B00001460CD54FF0A0430322C3F84427C3F8ED
:1003C0004827C3F84C27C3F85027FFF7CDFF8B070A
:1003D0000AD54FF0A0430C22C3F83427C3F83827BE
:1003E000C3F83C27C3F8402708BD000072B6024A94
:1003F000136801331360704708000020034A136834
:10040000013B136003B962B6704700BF08000020CB
:10041000FFF7ECBFFFF7F2BF826810B504464068F3
:10042000531C834205D820688154A360E3680133DC
:10043000E360D4E901329A420BD12168206900F0CF
:100440005BFAA368984215BF4FF0FF330023E360C7
:10045000A36010BD2DE9F84F9946DDE90A43164621
:10046000054688460A464FF0010AB24212D2CA45F2
:1004700038BFCA4613F0010B01D184B90024EB68E0
:10048000002B48DB0127B9F1010F1FD909F1FF3912
:100490007743F8E70AF1010AB2FBF6F2E5E79B07BA
:1004A00012D5B9F1000F0CBF30272027A245E6D2A4
:1004B00039462846FFF7B0FFEB68002B04F1FF3404
:1004C000DDDB002CF2D1D9E72027EFE7B8FBF7F30B
:1004D0009E42DDD9DFF84890B8FBF7F3284619F8BB
:1004E000031007FB1388FFF797FFEB68002B03DB74
:1004F000B7FBF6F3B74210D2BBF1000F0BD054B1EB
:10050000A24508D220212846FFF786FFEB68002B82
:1005100004F1FF34F3DABDE8F88F1F46DCE700BFD3
:100520004A0D00002DE9F04F9BB00AAB0E46059333
:1005300040210023CDE90613CDE90830039015468C
:100540004FF00A0A16F8011B39B9089B002B00F37B
:100550000B8108981BB0BDE8F08F252940F0B580CD
:100560004FF0000B07E0302B0FD14BF0020B01E0F6
:100570004BF0010B0E46314611F8013B2D2BF7D005
:10058000F1D8232B11D02B2B0CD00024314611F89D
:10059000013BA3F1300009280AD80AFB0434303C9F
:1005A0000E46F3E74BF0040BE4E74BF0080BE1E7F2
:1005B0002E2B0FD10E464FF00009304610F8011BCC
:1005C000A1F13007092F07D80AFB0913A3F130095D
:1005D0000646F2E74FF00009304610F8011B01F023
:1005E000FB07682F0646F8D0782909D86F290BD861
:1005F000632966D020D8252967D0582900F0948037
:10060000089B002B9EDAA0E770390829F8D801A3CF
:1006100053F821F059070000010600000106000010
:10062000390700000106000017070000010600005E
:1006300001060000290700006429E1D129680F683C
:10064000081D87EAE7712860A1EBE7714FF0010808
:1006500009293EDCC84538BFC8462CB1002F02DB53
:100660001BF0040F00D0013C1BF0020F02D0B9F1C7
:10067000000F04D01BF0010F01D17CBB00240899AE
:100680000029BDDB002F35DA7F422D2105A8FFF7B9
:10069000C3FE08990029B3DB0BF00301022904D142
:1006A000B9F1000F01D154BB002408990029A7DB40
:1006B000CDE9004B4B460A22394605A8FFF7CAFE92
:1006C0009EE72B681A1D19782A6005A8FFF7A4FE7B
:1006D00096E708F10108B1FBFAF1B9E7A045CED2DF
:1006E000202105A8FFF798FE0899002904F1FF349E
:1006F000C3DAC4E71BF0040FCBD02B21C6E7A0451B
:10070000D3D2302105A8FFF787FE0899002904F10C
:10071000FF34C8DAC9E72968CDE9004B081D286015
:100720004B460A220968C8E72968CDE9004B081D35
:1007300028604B461022F5E72B681A1D2A601C68BA
:1007400014F8011B00293FF45BAF05A8FFF764FE16
:10075000089B002BF4DA53E729680B1D2B6000225D
:100760000823CDE90032E5E7079A1AB103980AA9F0
:1007700000F0C2F8DDE9072313440893E9E600BF5F
:100780000EB403B503AB01AA53F8041B0193FFF7A2
:10079000C9FE02B05DF804EB03B070470369C2689C
:1007A00093429CBF80681B18013B981A70472DE943
:1007B000F843D0E902940546A9EB04084068904547
:1007C00020440F46144404D900F01CFAEC60BDE844
:1007D000F8834246A4EB090400F014FA6868224644
:1007E00007EB0801F0E72DE9F843C568064689469E
:1007F00017464FF000083469B3687068A54228BFF7
:10080000E418013C621B5C1BBC4228BF3C4694427E
:1008100028BF144649462844224600F0F3F9B3683D
:100820002544AB4208BF00253F1BA044A144F5600E
:10083000E1D14046BDE8F88310B5114C114AA261E0
:100840000223C4E90433104BE361A2644FF4007344
:100850000E4A0F492362E26400231022E01DA362C6
:100860006362E362A3656365E365226500F0F3F903
:100870000849204600F0EFF92023A37110BD00BF06
:100880000C0000205A0D000094000020840000207D
:10089000630D0000670D000070B5164B182400FBB7
:1008A00004451D4404FB00331646DC6A012C0ED0BF
:1008B000022C18D0E4B92846FFF770FF864204D80E
:1008C00032462846FFF773FF3446204670BD28465F
:1008D000FFF764FF8642344628BF04462246284676
:1008E000FFF765FFF1E72846BDE87040FFF77BBFE3
:1008F0000024EAE70C00002070B50B4B1B7804467F
:100900000D4616460BB9FFF797FF0020FFF780FD55
:10091000324629462046FFF7BFFF04460020FFF776
:1009200079FD204670BD00BF0C00002013B50446C1
:100930000846019100F0B1F901990246204602B043
:10094000BDE81040FFF7D8BF4FF0704393F8E02F99
:10095000062A10D1D3F8E42F12070CD1D3F8E80FF0
:1009600000F0F003302B08D000F0E000A0F14003CD
:1009700058425841704700207047012070474FF09F
:10098000704393F8E02F062A0CD1D3F8E42F120716
:1009900008D1D3F8E80F00F0F000A0F1300358427E
:1009A000584170470020704708B5FFF7CDFF40B1B0
:1009B0004FF08053884AD3F82433C3F30423C2F89A
:1009C0004035FFF7DCFF10B1844B854A5A67FFF7CB
:1009D000BBFF48B14FF080534FF08042D3F8443210
:1009E000C3F34233C2F83C35FFF7C9FF30B17D4A4B
:1009F000D2F8FC3023F08073C2F8FC30FFF7A4FF7C
:100A000040B14FF080430022C3F80C21C3F81021FD
:100A1000C3F83825FFF7B3FF20B14FF0804303221E
:100A2000C3F8A025FFF7ABFF60B16F4B0522C3F8F9
:100A300010260122C3F888260022C3F818263F2278
:100A4000C3F814264FF0704393F8E02F062A50D1D4
:100A5000D3F8E42F11074CD1D3F8E83F03F0F003AB
:100A6000502B46D14FF08052604BD2F80414C3F89B
:100A70002015D2F80814C3F82415D2F80C14C3F8C2
:100A80002815D2F81014C3F82C15D2F81414C3F892
:100A90003015D2F81814C3F83415D2F81C14C3F862
:100AA0004015D2F82014C3F84415D2F82414C3F822
:100AB0004815D2F82814C3F84C15D2F82C14C3F8F2
:100AC0005015D2F83014C3F85415D2F83414C3F8C2
:100AD0006015D2F83814C3F86415D2F83C14C3F882
:100AE0006815D2F84014C3F86C15D2F84424C3F842
:100AF0007025FFF729FF48B14FF080534FF0804237
:100B0000D3F8583203F04F03C2F8E43EFFF71CFF5E
:100B100048B14FF08043D3F80024D20744BF6FF0B0
:100B20000102C3F800244FF08053D3F83021062A85
:100B30000AD1D3F83431062B01BF2D4AD2F83C3705
:100B400043F48063C2F83C37264AD2F8883043F435
:100B50007003C2F88830BFF34F8FBFF36F8F4FF031
:100B60001023D3F80022002A03DBD3F80432002B31
:100B70002EDA204B0122C3F80425D3F80024002AE2
:100B8000FBD04FF010221521C2F80012D3F8002438
:100B9000002AFBD04FF010231522C3F80422154B76
:100BA000D3F80024002AFBD00022C3F80425D3F890
:100BB0000024002AFBD0BFF34F8F0A490E4BCA68AE
:100BC00002F4E0621343CB60BFF34F8F00BFFDE739
:100BD0000A4B0B4A1A6008BD0030014000C00740B4
:100BE0000DF0ADBA00ED00E00050004000C0004044
:100BF0000010004000E001400400FA050000002061
:100C00000090D003844640EA010313F0030F18D18B
:100C10008446202A0BD32DE9F007B1E8F807A0E8B5
:100C2000F807A2F12002202AF7D2BDE8F007042A33
:100C300007D351F8043B40F8043BA2F10402042A14
:100C4000F7D2002A05D011F8013B00F8013B013A28
:100C5000F9D160467047024610F0030F16D111F02B
:100C6000030F13D12DE9F0004FF001374FF080331F
:100C700051F8044BA4EB070525EA04051D4002D1F9
:100C800042F8044BF4E7A1F10401F0BC11F8013B78
:100C900002F8013B002BF9D1704700F1010110F07F
:100CA000030F11D010F8012B002A23D010F0030FEE
:100CB0000AD010F8012B002A1CD010F0030F03D02B
:100CC00010F8012B002A15D02DE970004FF00132E9
:100CD0004FF0803350F8044BA4EB020525EA0405DD
:100CE0001D4000D1F6E7A0F1040070BC10F8012B04
:0A0CF000002AFBD1A0EB01007047C1
:100CFC00426C696E6B792E0A00436F756E74696E67
:100D0C00673A20446563696D616C20253033640952
:100D1C004865782030782530327809415343494969
:100D2C002025630A00000000000000000000000005
:100D3C00000000000338FDD8704711121314303135
:100D4C00323334353637383941424344454654659D
:100D5C00726D696E616C005254540053454747459F
:020D6C00520033
:040D70000090D0031C
:0400000300000239BE
:00000001FF
